{
  "contractName": "PermitSignatureGSN",
  "abi": [
    {
      "inputs": [
        {
          "internalType": "contract ISignatureTransfer",
          "name": "_permit",
          "type": "address"
        },
        {
          "internalType": "address",
          "name": "forwarder",
          "type": "address"
        }
      ],
      "stateMutability": "nonpayable",
      "type": "constructor"
    },
    {
      "anonymous": false,
      "inputs": [
        {
          "indexed": true,
          "internalType": "address",
          "name": "previousOwner",
          "type": "address"
        },
        {
          "indexed": true,
          "internalType": "address",
          "name": "newOwner",
          "type": "address"
        }
      ],
      "name": "OwnershipTransferred",
      "type": "event"
    },
    {
      "inputs": [],
      "name": "PERMIT2",
      "outputs": [
        {
          "internalType": "contract ISignatureTransfer",
          "name": "",
          "type": "address"
        }
      ],
      "stateMutability": "view",
      "type": "function",
      "constant": true
    },
    {
      "inputs": [],
      "name": "getTrustedForwarder",
      "outputs": [
        {
          "internalType": "address",
          "name": "forwarder",
          "type": "address"
        }
      ],
      "stateMutability": "view",
      "type": "function",
      "constant": true
    },
    {
      "inputs": [
        {
          "internalType": "address",
          "name": "forwarder",
          "type": "address"
        }
      ],
      "name": "isTrustedForwarder",
      "outputs": [
        {
          "internalType": "bool",
          "name": "",
          "type": "bool"
        }
      ],
      "stateMutability": "view",
      "type": "function",
      "constant": true
    },
    {
      "inputs": [],
      "name": "owner",
      "outputs": [
        {
          "internalType": "address",
          "name": "",
          "type": "address"
        }
      ],
      "stateMutability": "view",
      "type": "function",
      "constant": true
    },
    {
      "inputs": [],
      "name": "renounceOwnership",
      "outputs": [],
      "stateMutability": "nonpayable",
      "type": "function"
    },
    {
      "inputs": [
        {
          "internalType": "address",
          "name": "",
          "type": "address"
        },
        {
          "internalType": "address",
          "name": "",
          "type": "address"
        }
      ],
      "name": "tokenBalancesByUser",
      "outputs": [
        {
          "internalType": "uint256",
          "name": "",
          "type": "uint256"
        }
      ],
      "stateMutability": "view",
      "type": "function",
      "constant": true
    },
    {
      "inputs": [
        {
          "internalType": "address",
          "name": "newOwner",
          "type": "address"
        }
      ],
      "name": "transferOwnership",
      "outputs": [],
      "stateMutability": "nonpayable",
      "type": "function"
    },
    {
      "inputs": [],
      "name": "yangPunya",
      "outputs": [
        {
          "internalType": "string",
          "name": "",
          "type": "string"
        }
      ],
      "stateMutability": "view",
      "type": "function",
      "constant": true
    },
    {
      "inputs": [
        {
          "internalType": "uint256",
          "name": "_amount",
          "type": "uint256"
        },
        {
          "internalType": "address",
          "name": "_token",
          "type": "address"
        },
        {
          "internalType": "address",
          "name": "_owner",
          "type": "address"
        },
        {
          "internalType": "address",
          "name": "_user",
          "type": "address"
        },
        {
          "components": [
            {
              "components": [
                {
                  "internalType": "address",
                  "name": "token",
                  "type": "address"
                },
                {
                  "internalType": "uint256",
                  "name": "amount",
                  "type": "uint256"
                }
              ],
              "internalType": "struct ISignatureTransfer.TokenPermissions",
              "name": "permitted",
              "type": "tuple"
            },
            {
              "internalType": "uint256",
              "name": "nonce",
              "type": "uint256"
            },
            {
              "internalType": "uint256",
              "name": "deadline",
              "type": "uint256"
            }
          ],
          "internalType": "struct ISignatureTransfer.PermitTransferFrom",
          "name": "_permit",
          "type": "tuple"
        },
        {
          "internalType": "bytes",
          "name": "_signature",
          "type": "bytes"
        }
      ],
      "name": "deposit",
      "outputs": [],
      "stateMutability": "nonpayable",
      "type": "function"
    }
  ],
  "bytecode": "0x60a06040526040518060400160405280600681526020017f48696c6d616e0000000000000000000000000000000000000000000000000000815250600290816200004a919062000525565b503480156200005857600080fd5b50604051620016f9380380620016f983398181016040528101906200007e9190620006bb565b6200009e62000092620000eb60201b60201c565b6200010760201b60201c565b8173ffffffffffffffffffffffffffffffffffffffff1660808173ffffffffffffffffffffffffffffffffffffffff1681525050620000e381620001cd60201b60201c565b505062000702565b6000620001026200021060201b620005c71760201c565b905090565b6000600160009054906101000a900473ffffffffffffffffffffffffffffffffffffffff16905081600160006101000a81548173ffffffffffffffffffffffffffffffffffffffff021916908373ffffffffffffffffffffffffffffffffffffffff1602179055508173ffffffffffffffffffffffffffffffffffffffff168173ffffffffffffffffffffffffffffffffffffffff167f8be0079c531659141344cd1fd0a4f28419497f9722a3daafe3b4186f6b6457e060405160405180910390a35050565b806000806101000a81548173ffffffffffffffffffffffffffffffffffffffff021916908373ffffffffffffffffffffffffffffffffffffffff16021790555050565b6000601460003690501015801562000235575062000234336200025260201b60201c565b5b156200024b57601436033560601c90506200024f565b3390505b90565b60008060009054906101000a900473ffffffffffffffffffffffffffffffffffffffff1673ffffffffffffffffffffffffffffffffffffffff168273ffffffffffffffffffffffffffffffffffffffff16149050919050565b600081519050919050565b7f4e487b7100000000000000000000000000000000000000000000000000000000600052604160045260246000fd5b7f4e487b7100000000000000000000000000000000000000000000000000000000600052602260045260246000fd5b600060028204905060018216806200032d57607f821691505b602082108103620003435762000342620002e5565b5b50919050565b60008190508160005260206000209050919050565b60006020601f8301049050919050565b600082821b905092915050565b600060088302620003ad7fffffffffffffffffffffffffffffffffffffffffffffffffffffffffffffffff826200036e565b620003b986836200036e565b95508019841693508086168417925050509392505050565b6000819050919050565b6000819050919050565b60006200040662000400620003fa84620003d1565b620003db565b620003d1565b9050919050565b6000819050919050565b6200042283620003e5565b6200043a62000431826200040d565b8484546200037b565b825550505050565b600090565b6200045162000442565b6200045e81848462000417565b505050565b5b8181101562000486576200047a60008262000447565b60018101905062000464565b5050565b601f821115620004d5576200049f8162000349565b620004aa846200035e565b81016020851015620004ba578190505b620004d2620004c9856200035e565b83018262000463565b50505b505050565b600082821c905092915050565b6000620004fa60001984600802620004da565b1980831691505092915050565b6000620005158383620004e7565b9150826002028217905092915050565b6200053082620002ab565b67ffffffffffffffff8111156200054c576200054b620002b6565b5b62000558825462000314565b620005658282856200048a565b600060209050601f8311600181146200059d576000841562000588578287015190505b62000594858262000507565b86555062000604565b601f198416620005ad8662000349565b60005b82811015620005d757848901518255600182019150602085019450602081019050620005b0565b86831015620005f75784890151620005f3601f891682620004e7565b8355505b6001600288020188555050505b505050505050565b600080fd5b600073ffffffffffffffffffffffffffffffffffffffff82169050919050565b60006200063e8262000611565b9050919050565b6000620006528262000631565b9050919050565b620006648162000645565b81146200067057600080fd5b50565b600081519050620006848162000659565b92915050565b620006958162000631565b8114620006a157600080fd5b50565b600081519050620006b5816200068a565b92915050565b60008060408385031215620006d557620006d46200060c565b5b6000620006e58582860162000673565b9250506020620006f885828601620006a4565b9150509250929050565b608051610fd4620007256000396000818161029b01526103f70152610fd46000f3fe608060405234801561001057600080fd5b50600436106100935760003560e01c80638d00e14e116100665780638d00e14e1461010e5780638da5cb5b1461013e578063ce1b815f1461015c578063e30fcaad1461017a578063f2fde38b1461019657610093565b8063572b6c0514610098578063637cee3a146100c85780636afdd850146100e6578063715018a614610104575b600080fd5b6100b260048036038101906100ad91906107b9565b6101b2565b6040516100bf9190610801565b60405180910390f35b6100d061020b565b6040516100dd91906108ac565b60405180910390f35b6100ee610299565b6040516100fb919061092d565b60405180910390f35b61010c6102bd565b005b61012860048036038101906101239190610948565b6102d1565b60405161013591906109a1565b60405180910390f35b6101466102f6565b60405161015391906109cb565b60405180910390f35b610164610320565b60405161017191906109cb565b60405180910390f35b610194600480360381019061018f9190610a9b565b610349565b005b6101b060048036038101906101ab91906107b9565b610544565b005b60008060009054906101000a900473ffffffffffffffffffffffffffffffffffffffff1673ffffffffffffffffffffffffffffffffffffffff168273ffffffffffffffffffffffffffffffffffffffff16149050919050565b6002805461021890610b7b565b80601f016020809104026020016040519081016040528092919081815260200182805461024490610b7b565b80156102915780601f1061026657610100808354040283529160200191610291565b820191906000526020600020905b81548152906001019060200180831161027457829003601f168201915b505050505081565b7f000000000000000000000000000000000000000000000000000000000000000081565b6102c56105fe565b6102cf600061067c565b565b6003602052816000526040600020602052806000526040600020600091509150505481565b6000600160009054906101000a900473ffffffffffffffffffffffffffffffffffffffff16905090565b60008060009054906101000a900473ffffffffffffffffffffffffffffffffffffffff16905090565b86600360008673ffffffffffffffffffffffffffffffffffffffff1673ffffffffffffffffffffffffffffffffffffffff16815260200190815260200160002060008873ffffffffffffffffffffffffffffffffffffffff1673ffffffffffffffffffffffffffffffffffffffff16815260200190815260200160002060008282546103d59190610bdb565b92505081905550600073e5b78452b963ee246c7043eceb378367d2b0b86290507f000000000000000000000000000000000000000000000000000000000000000073ffffffffffffffffffffffffffffffffffffffff1663137c29fe8560405180604001604052808573ffffffffffffffffffffffffffffffffffffffff1681526020018c815250897ffeed45b61d43f452c933000e813412318e408c352e137cba26cfbe202b355c3a60405180602001604052808c73ffffffffffffffffffffffffffffffffffffffff168152506040516020016104b5929190610c53565b60405160208183030381529060405280519060200120604051806080016040528060538152602001610f4c6053913989896040518863ffffffff1660e01b81526004016105089796959493929190610dd9565b600060405180830381600087803b15801561052257600080fd5b505af1158015610536573d6000803e3d6000fd5b505050505050505050505050565b61054c6105fe565b600073ffffffffffffffffffffffffffffffffffffffff168173ffffffffffffffffffffffffffffffffffffffff16036105bb576040517f08c379a00000000000000000000000000000000000000000000000000000000081526004016105b290610ebf565b60405180910390fd5b6105c48161067c565b50565b600060146000369050101580156105e357506105e2336101b2565b5b156105f757601436033560601c90506105fb565b3390505b90565b610606610742565b73ffffffffffffffffffffffffffffffffffffffff166106246102f6565b73ffffffffffffffffffffffffffffffffffffffff161461067a576040517f08c379a000000000000000000000000000000000000000000000000000000000815260040161067190610f2b565b60405180910390fd5b565b6000600160009054906101000a900473ffffffffffffffffffffffffffffffffffffffff16905081600160006101000a81548173ffffffffffffffffffffffffffffffffffffffff021916908373ffffffffffffffffffffffffffffffffffffffff1602179055508173ffffffffffffffffffffffffffffffffffffffff168173ffffffffffffffffffffffffffffffffffffffff167f8be0079c531659141344cd1fd0a4f28419497f9722a3daafe3b4186f6b6457e060405160405180910390a35050565b600061074c6105c7565b905090565b600080fd5b600080fd5b600073ffffffffffffffffffffffffffffffffffffffff82169050919050565b60006107868261075b565b9050919050565b6107968161077b565b81146107a157600080fd5b50565b6000813590506107b38161078d565b92915050565b6000602082840312156107cf576107ce610751565b5b60006107dd848285016107a4565b91505092915050565b60008115159050919050565b6107fb816107e6565b82525050565b600060208201905061081660008301846107f2565b92915050565b600081519050919050565b600082825260208201905092915050565b60005b8381101561085657808201518184015260208101905061083b565b60008484015250505050565b6000601f19601f8301169050919050565b600061087e8261081c565b6108888185610827565b9350610898818560208601610838565b6108a181610862565b840191505092915050565b600060208201905081810360008301526108c68184610873565b905092915050565b6000819050919050565b60006108f36108ee6108e98461075b565b6108ce565b61075b565b9050919050565b6000610905826108d8565b9050919050565b6000610917826108fa565b9050919050565b6109278161090c565b82525050565b6000602082019050610942600083018461091e565b92915050565b6000806040838503121561095f5761095e610751565b5b600061096d858286016107a4565b925050602061097e858286016107a4565b9150509250929050565b6000819050919050565b61099b81610988565b82525050565b60006020820190506109b66000830184610992565b92915050565b6109c58161077b565b82525050565b60006020820190506109e060008301846109bc565b92915050565b6109ef81610988565b81146109fa57600080fd5b50565b600081359050610a0c816109e6565b92915050565b600080fd5b600060808284031215610a2d57610a2c610a12565b5b81905092915050565b600080fd5b600080fd5b600080fd5b60008083601f840112610a5b57610a5a610a36565b5b8235905067ffffffffffffffff811115610a7857610a77610a3b565b5b602083019150836001820283011115610a9457610a93610a40565b5b9250929050565b6000806000806000806000610120888a031215610abb57610aba610751565b5b6000610ac98a828b016109fd565b9750506020610ada8a828b016107a4565b9650506040610aeb8a828b016107a4565b9550506060610afc8a828b016107a4565b9450506080610b0d8a828b01610a17565b93505061010088013567ffffffffffffffff811115610b2f57610b2e610756565b5b610b3b8a828b01610a45565b925092505092959891949750929550565b7f4e487b7100000000000000000000000000000000000000000000000000000000600052602260045260246000fd5b60006002820490506001821680610b9357607f821691505b602082108103610ba657610ba5610b4c565b5b50919050565b7f4e487b7100000000000000000000000000000000000000000000000000000000600052601160045260246000fd5b6000610be682610988565b9150610bf183610988565b9250828201905080821115610c0957610c08610bac565b5b92915050565b6000819050919050565b610c2281610c0f565b82525050565b610c318161077b565b82525050565b602082016000820151610c4d6000850182610c28565b50505050565b6000604082019050610c686000830185610c19565b610c756020830184610c37565b9392505050565b600082905092915050565b6000610c9660208401846107a4565b905092915050565b6000610cad60208401846109fd565b905092915050565b610cbe81610988565b82525050565b60408201610cd56000830183610c87565b610ce26000850182610c28565b50610cf06020830183610c9e565b610cfd6020850182610cb5565b50505050565b60808201610d146000830183610c7c565b610d216000850182610cc4565b50610d2f6040830183610c9e565b610d3c6040850182610cb5565b50610d4a6060830183610c9e565b610d576060850182610cb5565b50505050565b604082016000820151610d736000850182610c28565b506020820151610d866020850182610cb5565b50505050565b600082825260208201905092915050565b82818337600083830152505050565b6000610db88385610d8c565b9350610dc5838584610d9d565b610dce83610862565b840190509392505050565b600061014082019050610def600083018a610d03565b610dfc6080830189610d5d565b610e0960c08301886109bc565b610e1660e0830187610c19565b818103610100830152610e298186610873565b9050818103610120830152610e3f818486610dac565b905098975050505050505050565b7f4f776e61626c653a206e6577206f776e657220697320746865207a65726f206160008201527f6464726573730000000000000000000000000000000000000000000000000000602082015250565b6000610ea9602683610827565b9150610eb482610e4d565b604082019050919050565b60006020820190508181036000830152610ed881610e9c565b9050919050565b7f4f776e61626c653a2063616c6c6572206973206e6f7420746865206f776e6572600082015250565b6000610f15602083610827565b9150610f2082610edf565b602082019050919050565b60006020820190508181036000830152610f4481610f08565b905091905056fe5769746e657373207769746e65737329546f6b656e5065726d697373696f6e73286164647265737320746f6b656e2c75696e7432353620616d6f756e74295769746e6573732861646472657373207573657229a2646970667358221220dad31a310b44bcdff4d80aa26ea7f528f975ae580519f9a981001998512eb2dd64736f6c63430008120033",
  "immutableReferences": {
    "1110": [
      {
        "length": 32,
        "start": 667
      },
      {
        "length": 32,
        "start": 1015
      }
    ]
  },
  "source": "// SPDX-License-Identifier: MIT\r\n\r\npragma solidity ^0.8.17;\r\n\r\nimport {ISignatureTransfer} from \"./interfaces/ISignatureTransfer.sol\";\r\nimport \"@opengsn/contracts/src/ERC2771Recipient.sol\";\r\nimport \"@openzeppelin/contracts/access/Ownable.sol\";\r\n\r\ncontract PermitSignatureGSN is ERC2771Recipient, Ownable  {\r\n    string public yangPunya = \"Hilman\";\r\n\r\n    string private constant WITNESS_TYPE_STRING = \"Witness witness)TokenPermissions(address token,uint256 amount)Witness(address user)\";\r\n    bytes32 private constant WITNESS_TYPEHASH = keccak256(\"Witness(address user)\");\r\n\r\n    struct Witness {\r\n        // Address of the user that signer is giving the tokens to\r\n        address user;\r\n    }\r\n\r\n    ISignatureTransfer public immutable PERMIT2;\r\n\r\n    constructor(ISignatureTransfer _permit, address forwarder) {\r\n        PERMIT2 = _permit;\r\n        _setTrustedForwarder(forwarder);\r\n    }\r\n\r\n    mapping (address => mapping (address => uint256)) public tokenBalancesByUser;\r\n\r\n    function deposit(\r\n        uint256 _amount,\r\n        address _token,\r\n        address _owner,\r\n        address _user,\r\n        ISignatureTransfer.PermitTransferFrom calldata _permit,\r\n        bytes calldata _signature\r\n    ) external {\r\n        tokenBalancesByUser[_user][_token] += _amount;\r\n\r\n        address Acc2 = 0xE5B78452B963Ee246c7043ecEb378367d2b0b862;\r\n\r\n        PERMIT2.permitWitnessTransferFrom(\r\n            _permit,\r\n            ISignatureTransfer.SignatureTransferDetails({\r\n                to: Acc2,\r\n                requestedAmount: _amount\r\n            }),\r\n            _owner,\r\n            // witness\r\n            keccak256(abi.encode(WITNESS_TYPEHASH,Witness(_user))),\r\n            // witnessTypeString,\r\n            WITNESS_TYPE_STRING,\r\n            _signature\r\n        );\r\n    }\r\n\r\n    function _msgSender() internal view override(Context, ERC2771Recipient)\r\n        returns (address sender) {\r\n        sender = ERC2771Recipient._msgSender();\r\n    }\r\n\r\n    function _msgData() internal view override(Context, ERC2771Recipient)\r\n        returns (bytes calldata) {\r\n        return ERC2771Recipient._msgData();\r\n    }\r\n}",
  "sourcePath": "D:\\Belajar\\Coding\\Blockchain\\Permit2\\Base Permit2\\contracts\\PermitSignatureGSN.sol",
  "compiler": {
    "name": "solc",
    "version": "0.8.18+commit.87f61d96.Emscripten.clang"
  },
  "schemaVersion": "3.4.13",
  "updatedAt": "2023-05-25T03:37:33.156Z",
  "networkType": "ethereum",
  "devdoc": {
    "kind": "dev",
    "methods": {
      "getTrustedForwarder()": {
        "returns": {
          "forwarder": "The address of the Forwarder contract that is being used."
        }
      },
      "isTrustedForwarder(address)": {
        "params": {
          "forwarder": "The address of the Forwarder contract that is being used."
        },
        "returns": {
          "_0": "isTrustedForwarder `true` if the Forwarder is trusted to forward relayed transactions by this Recipient."
        }
      },
      "owner()": {
        "details": "Returns the address of the current owner."
      },
      "renounceOwnership()": {
        "details": "Leaves the contract without owner. It will not be possible to call `onlyOwner` functions anymore. Can only be called by the current owner. NOTE: Renouncing ownership will leave the contract without an owner, thereby removing any functionality that is only available to the owner."
      },
      "transferOwnership(address)": {
        "details": "Transfers ownership of the contract to a new account (`newOwner`). Can only be called by the current owner."
      }
    },
    "version": 1
  },
  "userdoc": {
    "kind": "user",
    "methods": {
      "getTrustedForwarder()": {
        "notice": ":warning: **Warning** :warning: The Forwarder can have a full control over your Recipient. Only trust verified Forwarder.Method is not a required method to allow Recipients to trust multiple Forwarders. Not recommended yet."
      },
      "isTrustedForwarder(address)": {
        "notice": ":warning: **Warning** :warning: The Forwarder can have a full control over your Recipient. Only trust verified Forwarder."
      }
    },
    "version": 1
  }
}