{
  "contractName": "PermitSignatureGSN",
  "abi": [
    {
      "inputs": [
        {
          "internalType": "contract ISignatureTransfer",
          "name": "_permit",
          "type": "address"
        },
        {
          "internalType": "address",
          "name": "forwarder",
          "type": "address"
        }
      ],
      "stateMutability": "nonpayable",
      "type": "constructor"
    },
    {
      "anonymous": false,
      "inputs": [
        {
          "indexed": true,
          "internalType": "address",
          "name": "previousOwner",
          "type": "address"
        },
        {
          "indexed": true,
          "internalType": "address",
          "name": "newOwner",
          "type": "address"
        }
      ],
      "name": "OwnershipTransferred",
      "type": "event"
    },
    {
      "inputs": [],
      "name": "PERMIT2",
      "outputs": [
        {
          "internalType": "contract ISignatureTransfer",
          "name": "",
          "type": "address"
        }
      ],
      "stateMutability": "view",
      "type": "function"
    },
    {
      "inputs": [],
      "name": "getTrustedForwarder",
      "outputs": [
        {
          "internalType": "address",
          "name": "forwarder",
          "type": "address"
        }
      ],
      "stateMutability": "view",
      "type": "function"
    },
    {
      "inputs": [
        {
          "internalType": "address",
          "name": "forwarder",
          "type": "address"
        }
      ],
      "name": "isTrustedForwarder",
      "outputs": [
        {
          "internalType": "bool",
          "name": "",
          "type": "bool"
        }
      ],
      "stateMutability": "view",
      "type": "function"
    },
    {
      "inputs": [],
      "name": "owner",
      "outputs": [
        {
          "internalType": "address",
          "name": "",
          "type": "address"
        }
      ],
      "stateMutability": "view",
      "type": "function"
    },
    {
      "inputs": [],
      "name": "renounceOwnership",
      "outputs": [],
      "stateMutability": "nonpayable",
      "type": "function"
    },
    {
      "inputs": [
        {
          "internalType": "address",
          "name": "newOwner",
          "type": "address"
        }
      ],
      "name": "transferOwnership",
      "outputs": [],
      "stateMutability": "nonpayable",
      "type": "function"
    },
    {
      "inputs": [
        {
          "internalType": "uint256[]",
          "name": "_amount",
          "type": "uint256[]"
        },
        {
          "internalType": "address[]",
          "name": "_token",
          "type": "address[]"
        },
        {
          "internalType": "address[]",
          "name": "_recipient",
          "type": "address[]"
        },
        {
          "internalType": "address",
          "name": "_owner",
          "type": "address"
        },
        {
          "components": [
            {
              "components": [
                {
                  "internalType": "address",
                  "name": "token",
                  "type": "address"
                },
                {
                  "internalType": "uint256",
                  "name": "amount",
                  "type": "uint256"
                }
              ],
              "internalType": "struct ISignatureTransfer.TokenPermissions[]",
              "name": "permitted",
              "type": "tuple[]"
            },
            {
              "internalType": "uint256",
              "name": "nonce",
              "type": "uint256"
            },
            {
              "internalType": "uint256",
              "name": "deadline",
              "type": "uint256"
            }
          ],
          "internalType": "struct ISignatureTransfer.PermitBatchTransferFrom",
          "name": "_permit",
          "type": "tuple"
        },
        {
          "internalType": "bytes",
          "name": "_signature",
          "type": "bytes"
        }
      ],
      "name": "transfer",
      "outputs": [],
      "stateMutability": "nonpayable",
      "type": "function"
    }
  ],
  "bytecode": "0x60a06040523480156200001157600080fd5b506040516200150738038062001507833981810160405281019062000037919062000313565b620000576200004b620000a460201b60201c565b620000c060201b60201c565b8173ffffffffffffffffffffffffffffffffffffffff1660808173ffffffffffffffffffffffffffffffffffffffff16815250506200009c816200018660201b60201c565b50506200035a565b6000620000bb620001c960201b620004251760201c565b905090565b6000600160009054906101000a900473ffffffffffffffffffffffffffffffffffffffff16905081600160006101000a81548173ffffffffffffffffffffffffffffffffffffffff021916908373ffffffffffffffffffffffffffffffffffffffff1602179055508173ffffffffffffffffffffffffffffffffffffffff168173ffffffffffffffffffffffffffffffffffffffff167f8be0079c531659141344cd1fd0a4f28419497f9722a3daafe3b4186f6b6457e060405160405180910390a35050565b806000806101000a81548173ffffffffffffffffffffffffffffffffffffffff021916908373ffffffffffffffffffffffffffffffffffffffff16021790555050565b60006014600036905010158015620001ee5750620001ed336200020b60201b60201c565b5b156200020457601436033560601c905062000208565b3390505b90565b60008060009054906101000a900473ffffffffffffffffffffffffffffffffffffffff1673ffffffffffffffffffffffffffffffffffffffff168273ffffffffffffffffffffffffffffffffffffffff16149050919050565b600080fd5b600073ffffffffffffffffffffffffffffffffffffffff82169050919050565b6000620002968262000269565b9050919050565b6000620002aa8262000289565b9050919050565b620002bc816200029d565b8114620002c857600080fd5b50565b600081519050620002dc81620002b1565b92915050565b620002ed8162000289565b8114620002f957600080fd5b50565b6000815190506200030d81620002e2565b92915050565b600080604083850312156200032d576200032c62000264565b5b60006200033d85828601620002cb565b92505060206200035085828601620002fc565b9150509250929050565b60805161118a6200037d600039600081816101a90152610307015261118a6000f3fe608060405234801561001057600080fd5b506004361061007d5760003560e01c80638da5cb5b1161005b5780638da5cb5b146100da578063ce1b815f146100f8578063dd2edc9114610116578063f2fde38b146101325761007d565b8063572b6c05146100825780636afdd850146100b2578063715018a6146100d0575b600080fd5b61009c6004803603810190610097919061068b565b61014e565b6040516100a991906106d3565b60405180910390f35b6100ba6101a7565b6040516100c7919061074d565b60405180910390f35b6100d86101cb565b005b6100e26101df565b6040516100ef9190610777565b60405180910390f35b610100610209565b60405161010d9190610777565b60405180910390f35b610130600480360381019061012b9190610a63565b610232565b005b61014c6004803603810190610147919061068b565b6103a2565b005b60008060009054906101000a900473ffffffffffffffffffffffffffffffffffffffff1673ffffffffffffffffffffffffffffffffffffffff168273ffffffffffffffffffffffffffffffffffffffff16149050919050565b7f000000000000000000000000000000000000000000000000000000000000000081565b6101d361045c565b6101dd60006104da565b565b6000600160009054906101000a900473ffffffffffffffffffffffffffffffffffffffff16905090565b60008060009054906101000a900473ffffffffffffffffffffffffffffffffffffffff16905090565b6002600061024091906105af565b60005b86518110156103045760006002600181600181540180825580915050039060005260206000209060020201905086828151811061028357610282610b82565b5b60200260200101518160000160006101000a81548173ffffffffffffffffffffffffffffffffffffffff021916908373ffffffffffffffffffffffffffffffffffffffff1602179055508882815181106102e0576102df610b82565b5b602002602001015181600101819055505080806102fc90610be0565b915050610243565b507f000000000000000000000000000000000000000000000000000000000000000073ffffffffffffffffffffffffffffffffffffffff1663edd9444b8460028786866040518663ffffffff1660e01b8152600401610367959493929190610fe9565b600060405180830381600087803b15801561038157600080fd5b505af1158015610395573d6000803e3d6000fd5b5050505050505050505050565b6103aa61045c565b600073ffffffffffffffffffffffffffffffffffffffff168173ffffffffffffffffffffffffffffffffffffffff1603610419576040517f08c379a0000000000000000000000000000000000000000000000000000000008152600401610410906110c8565b60405180910390fd5b610422816104da565b50565b6000601460003690501015801561044157506104403361014e565b5b1561045557601436033560601c9050610459565b3390505b90565b6104646105a0565b73ffffffffffffffffffffffffffffffffffffffff166104826101df565b73ffffffffffffffffffffffffffffffffffffffff16146104d8576040517f08c379a00000000000000000000000000000000000000000000000000000000081526004016104cf90611134565b60405180910390fd5b565b6000600160009054906101000a900473ffffffffffffffffffffffffffffffffffffffff16905081600160006101000a81548173ffffffffffffffffffffffffffffffffffffffff021916908373ffffffffffffffffffffffffffffffffffffffff1602179055508173ffffffffffffffffffffffffffffffffffffffff168173ffffffffffffffffffffffffffffffffffffffff167f8be0079c531659141344cd1fd0a4f28419497f9722a3daafe3b4186f6b6457e060405160405180910390a35050565b60006105aa610425565b905090565b50805460008255600202906000526020600020908101906105d091906105d3565b50565b5b8082111561061557600080820160006101000a81549073ffffffffffffffffffffffffffffffffffffffff02191690556001820160009055506002016105d4565b5090565b6000604051905090565b600080fd5b600080fd5b600073ffffffffffffffffffffffffffffffffffffffff82169050919050565b60006106588261062d565b9050919050565b6106688161064d565b811461067357600080fd5b50565b6000813590506106858161065f565b92915050565b6000602082840312156106a1576106a0610623565b5b60006106af84828501610676565b91505092915050565b60008115159050919050565b6106cd816106b8565b82525050565b60006020820190506106e860008301846106c4565b92915050565b6000819050919050565b600061071361070e6107098461062d565b6106ee565b61062d565b9050919050565b6000610725826106f8565b9050919050565b60006107378261071a565b9050919050565b6107478161072c565b82525050565b6000602082019050610762600083018461073e565b92915050565b6107718161064d565b82525050565b600060208201905061078c6000830184610768565b92915050565b600080fd5b6000601f19601f8301169050919050565b7f4e487b7100000000000000000000000000000000000000000000000000000000600052604160045260246000fd5b6107e082610797565b810181811067ffffffffffffffff821117156107ff576107fe6107a8565b5b80604052505050565b6000610812610619565b905061081e82826107d7565b919050565b600067ffffffffffffffff82111561083e5761083d6107a8565b5b602082029050602081019050919050565b600080fd5b6000819050919050565b61086781610854565b811461087257600080fd5b50565b6000813590506108848161085e565b92915050565b600061089d61089884610823565b610808565b905080838252602082019050602084028301858111156108c0576108bf61084f565b5b835b818110156108e957806108d58882610875565b8452602084019350506020810190506108c2565b5050509392505050565b600082601f83011261090857610907610792565b5b813561091884826020860161088a565b91505092915050565b600067ffffffffffffffff82111561093c5761093b6107a8565b5b602082029050602081019050919050565b600061096061095b84610921565b610808565b905080838252602082019050602084028301858111156109835761098261084f565b5b835b818110156109ac57806109988882610676565b845260208401935050602081019050610985565b5050509392505050565b600082601f8301126109cb576109ca610792565b5b81356109db84826020860161094d565b91505092915050565b600080fd5b6000606082840312156109ff576109fe6109e4565b5b81905092915050565b600080fd5b60008083601f840112610a2357610a22610792565b5b8235905067ffffffffffffffff811115610a4057610a3f610a08565b5b602083019150836001820283011115610a5c57610a5b61084f565b5b9250929050565b600080600080600080600060c0888a031215610a8257610a81610623565b5b600088013567ffffffffffffffff811115610aa057610a9f610628565b5b610aac8a828b016108f3565b975050602088013567ffffffffffffffff811115610acd57610acc610628565b5b610ad98a828b016109b6565b965050604088013567ffffffffffffffff811115610afa57610af9610628565b5b610b068a828b016109b6565b9550506060610b178a828b01610676565b945050608088013567ffffffffffffffff811115610b3857610b37610628565b5b610b448a828b016109e9565b93505060a088013567ffffffffffffffff811115610b6557610b64610628565b5b610b718a828b01610a0d565b925092505092959891949750929550565b7f4e487b7100000000000000000000000000000000000000000000000000000000600052603260045260246000fd5b7f4e487b7100000000000000000000000000000000000000000000000000000000600052601160045260246000fd5b6000610beb82610854565b91507fffffffffffffffffffffffffffffffffffffffffffffffffffffffffffffffff8203610c1d57610c1c610bb1565b5b600182019050919050565b600080fd5b600080fd5b600080fd5b60008083356001602003843603038112610c5457610c53610c32565b5b83810192508235915060208301925067ffffffffffffffff821115610c7c57610c7b610c28565b5b604082023603831315610c9257610c91610c2d565b5b509250929050565b600082825260208201905092915050565b6000819050919050565b6000610cc46020840184610676565b905092915050565b610cd58161064d565b82525050565b6000610cea6020840184610875565b905092915050565b610cfb81610854565b82525050565b60408201610d126000830183610cb5565b610d1f6000850182610ccc565b50610d2d6020830183610cdb565b610d3a6020850182610cf2565b50505050565b6000610d4c8383610d01565b60408301905092915050565b600082905092915050565b6000604082019050919050565b6000610d7c8385610c9a565b9350610d8782610cab565b8060005b85811015610dc057610d9d8284610d58565b610da78882610d40565b9750610db283610d63565b925050600181019050610d8b565b5085925050509392505050565b600060608301610de06000840184610c37565b8583036000870152610df3838284610d70565b92505050610e046020840184610cdb565b610e116020860182610cf2565b50610e1f6040840184610cdb565b610e2c6040860182610cf2565b508091505092915050565b600081549050919050565b600082825260208201905092915050565b60008190508160005260206000209050919050565b60008160001c9050919050565b600073ffffffffffffffffffffffffffffffffffffffff82169050919050565b6000610ea8610ea383610e68565b610e75565b9050919050565b6000819050919050565b6000610ecc610ec783610e68565b610eaf565b9050919050565b604082016000808301549050610ee881610e95565b610ef56000860182610ccc565b5060018301549050610f0681610eb9565b610f136020860182610cf2565b5050505050565b6000610f268383610ed3565b60408301905092915050565b6000600282019050919050565b6000610f4a82610e37565b610f548185610e42565b9350610f5f83610e53565b8060005b83811015610f8f5781610f768882610f1a565b9750610f8183610f32565b925050600181019050610f63565b5085935050505092915050565b600082825260208201905092915050565b82818337600083830152505050565b6000610fc88385610f9c565b9350610fd5838584610fad565b610fde83610797565b840190509392505050565b600060808201905081810360008301526110038188610dcd565b905081810360208301526110178187610f3f565b90506110266040830186610768565b8181036060830152611039818486610fbc565b90509695505050505050565b600082825260208201905092915050565b7f4f776e61626c653a206e6577206f776e657220697320746865207a65726f206160008201527f6464726573730000000000000000000000000000000000000000000000000000602082015250565b60006110b2602683611045565b91506110bd82611056565b604082019050919050565b600060208201905081810360008301526110e1816110a5565b9050919050565b7f4f776e61626c653a2063616c6c6572206973206e6f7420746865206f776e6572600082015250565b600061111e602083611045565b9150611129826110e8565b602082019050919050565b6000602082019050818103600083015261114d81611111565b905091905056fea2646970667358221220d4608c6eaff3f13105cd44807c68759be8889a63f3dea95faa71170657a8e4d964736f6c63430008120033",
  "immutableReferences": {
    "1008": [
      {
        "length": 32,
        "start": 425
      },
      {
        "length": 32,
        "start": 775
      }
    ]
  },
  "source": "// SPDX-License-Identifier: MIT\r\npragma solidity ^0.8.17;\r\n\r\nimport {ISignatureTransfer} from \"./interfaces/ISignatureTransfer.sol\";\r\nimport \"@opengsn/contracts/src/ERC2771Recipient.sol\";\r\nimport \"@openzeppelin/contracts/access/Ownable.sol\";\r\n\r\ncontract PermitSignatureGSN is ERC2771Recipient, Ownable  {\r\n    ISignatureTransfer public immutable PERMIT2;\r\n\r\n    constructor(ISignatureTransfer _permit, address forwarder) {\r\n        PERMIT2 = _permit;\r\n        _setTrustedForwarder(forwarder);\r\n    }\r\n\r\n    ISignatureTransfer.SignatureTransferDetails[] internal SignatureTransferDetails;\r\n\r\n    function transfer(\r\n        uint256[] memory _amount,\r\n        address[] memory _token,\r\n        address[] memory _recipient,\r\n        address _owner,\r\n        ISignatureTransfer.PermitBatchTransferFrom calldata _permit,\r\n        bytes calldata _signature\r\n    ) external {\r\n        delete SignatureTransferDetails;\r\n\r\n        for (uint i = 0; i < _token.length; i++) {\r\n            ISignatureTransfer.SignatureTransferDetails storage SignatureTransferDetail = SignatureTransferDetails.push();\r\n            SignatureTransferDetail.to = _recipient[i];\r\n            SignatureTransferDetail.requestedAmount = _amount[i];\r\n        }\r\n\r\n        PERMIT2.permitTransferFrom(\r\n            _permit,\r\n            SignatureTransferDetails,\r\n            _owner,\r\n            _signature\r\n        );\r\n    }\r\n\r\n    function _msgSender() internal view override(Context, ERC2771Recipient)\r\n        returns (address sender) {\r\n        sender = ERC2771Recipient._msgSender();\r\n    }\r\n\r\n    function _msgData() internal view override(Context, ERC2771Recipient)\r\n        returns (bytes calldata) {\r\n        return ERC2771Recipient._msgData();\r\n    }\r\n}",
  "sourcePath": "D:\\Blockchain\\permit2-GSN-react\\contracts\\PermitSignatureGSN.sol",
  "compiler": {
    "name": "solc",
    "version": "0.8.18+commit.87f61d96.Emscripten.clang"
  },
  "schemaVersion": "3.4.14",
  "updatedAt": "2023-07-17T10:18:15.196Z",
  "devdoc": {
    "kind": "dev",
    "methods": {
      "getTrustedForwarder()": {
        "returns": {
          "forwarder": "The address of the Forwarder contract that is being used."
        }
      },
      "isTrustedForwarder(address)": {
        "params": {
          "forwarder": "The address of the Forwarder contract that is being used."
        },
        "returns": {
          "_0": "isTrustedForwarder `true` if the Forwarder is trusted to forward relayed transactions by this Recipient."
        }
      },
      "owner()": {
        "details": "Returns the address of the current owner."
      },
      "renounceOwnership()": {
        "details": "Leaves the contract without owner. It will not be possible to call `onlyOwner` functions. Can only be called by the current owner. NOTE: Renouncing ownership will leave the contract without an owner, thereby disabling any functionality that is only available to the owner."
      },
      "transferOwnership(address)": {
        "details": "Transfers ownership of the contract to a new account (`newOwner`). Can only be called by the current owner."
      }
    },
    "version": 1
  },
  "userdoc": {
    "kind": "user",
    "methods": {
      "getTrustedForwarder()": {
        "notice": ":warning: **Warning** :warning: The Forwarder can have a full control over your Recipient. Only trust verified Forwarder.Method is not a required method to allow Recipients to trust multiple Forwarders. Not recommended yet."
      },
      "isTrustedForwarder(address)": {
        "notice": ":warning: **Warning** :warning: The Forwarder can have a full control over your Recipient. Only trust verified Forwarder."
      }
    },
    "version": 1
  }
}